{"contracts/Greeter.sol":{"Registry":{"abi":[{"inputs":[{"internalType":"uint256","name":"documentNumber","type":"uint256"},{"internalType":"string","name":"imgURI","type":"string"},{"internalType":"string","name":"storyURI","type":"string"},{"internalType":"address","name":"RegistryOwner","type":"address"}],"stateMutability":"nonpayable","type":"constructor"},{"inputs":[],"name":"documentInformation","outputs":[{"internalType":"string","name":"","type":"string"}],"stateMutability":"view","type":"function"},{"inputs":[],"name":"documentNO","outputs":[{"internalType":"uint256","name":"","type":"uint256"}],"stateMutability":"view","type":"function"},{"inputs":[],"name":"image","outputs":[{"internalType":"string","name":"","type":"string"}],"stateMutability":"view","type":"function"},{"inputs":[],"name":"owner","outputs":[{"internalType":"address payable","name":"","type":"address"}],"stateMutability":"view","type":"function"}],"evm":{"bytecode":{"linkReferences":{},"object":"60806040523480156200001157600080fd5b50604051620008c0380380620008c08339818101604052810190620000379190620003a8565b83600081905550826001908051906020019062000056929190620000bb565b5081600290805190602001906200006f929190620000bb565b5080600360006101000a81548173ffffffffffffffffffffffffffffffffffffffff021916908373ffffffffffffffffffffffffffffffffffffffff16021790555050505050620004bd565b828054620000c99062000487565b90600052602060002090601f016020900481019282620000ed576000855562000139565b82601f106200010857805160ff191683800117855562000139565b8280016001018555821562000139579182015b82811115620001385782518255916020019190600101906200011b565b5b5090506200014891906200014c565b5090565b5b80821115620001675760008160009055506001016200014d565b5090565b6000604051905090565b600080fd5b600080fd5b6000819050919050565b62000194816200017f565b8114620001a057600080fd5b50565b600081519050620001b48162000189565b92915050565b600080fd5b600080fd5b6000601f19601f8301169050919050565b7f4e487b7100000000000000000000000000000000000000000000000000000000600052604160045260246000fd5b6200020f82620001c4565b810181811067ffffffffffffffff82111715620002315762000230620001d5565b5b80604052505050565b6000620002466200016b565b905062000254828262000204565b919050565b600067ffffffffffffffff821115620002775762000276620001d5565b5b6200028282620001c4565b9050602081019050919050565b60005b83811015620002af57808201518184015260208101905062000292565b83811115620002bf576000848401525b50505050565b6000620002dc620002d68462000259565b6200023a565b905082815260208101848484011115620002fb57620002fa620001bf565b5b620003088482856200028f565b509392505050565b600082601f830112620003285762000327620001ba565b5b81516200033a848260208601620002c5565b91505092915050565b600073ffffffffffffffffffffffffffffffffffffffff82169050919050565b6000620003708262000343565b9050919050565b620003828162000363565b81146200038e57600080fd5b50565b600081519050620003a28162000377565b92915050565b60008060008060808587031215620003c557620003c462000175565b5b6000620003d587828801620001a3565b945050602085015167ffffffffffffffff811115620003f957620003f86200017a565b5b620004078782880162000310565b935050604085015167ffffffffffffffff8111156200042b576200042a6200017a565b5b620004398782880162000310565b92505060606200044c8782880162000391565b91505092959194509250565b7f4e487b7100000000000000000000000000000000000000000000000000000000600052602260045260246000fd5b60006002820490506001821680620004a057607f821691505b60208210811415620004b757620004b662000458565b5b50919050565b6103f380620004cd6000396000f3fe608060405234801561001057600080fd5b506004361061004c5760003560e01c80633d5cde3914610051578063515eee721461006f5780638da5cb5b1461008d578063f3ccaac0146100ab575b600080fd5b6100596100c9565b604051610066919061022a565b60405180910390f35b6100776100cf565b60405161008491906102de565b60405180910390f35b61009561015d565b6040516100a29190610341565b60405180910390f35b6100b3610183565b6040516100c091906102de565b60405180910390f35b60005481565b600280546100dc9061038b565b80601f01602080910402602001604051908101604052809291908181526020018280546101089061038b565b80156101555780601f1061012a57610100808354040283529160200191610155565b820191906000526020600020905b81548152906001019060200180831161013857829003601f168201915b505050505081565b600360009054906101000a900473ffffffffffffffffffffffffffffffffffffffff1681565b600180546101909061038b565b80601f01602080910402602001604051908101604052809291908181526020018280546101bc9061038b565b80156102095780601f106101de57610100808354040283529160200191610209565b820191906000526020600020905b8154815290600101906020018083116101ec57829003601f168201915b505050505081565b6000819050919050565b61022481610211565b82525050565b600060208201905061023f600083018461021b565b92915050565b600081519050919050565b600082825260208201905092915050565b60005b8381101561027f578082015181840152602081019050610264565b8381111561028e576000848401525b50505050565b6000601f19601f8301169050919050565b60006102b082610245565b6102ba8185610250565b93506102ca818560208601610261565b6102d381610294565b840191505092915050565b600060208201905081810360008301526102f881846102a5565b905092915050565b600073ffffffffffffffffffffffffffffffffffffffff82169050919050565b600061032b82610300565b9050919050565b61033b81610320565b82525050565b60006020820190506103566000830184610332565b92915050565b7f4e487b7100000000000000000000000000000000000000000000000000000000600052602260045260246000fd5b600060028204905060018216806103a357607f821691505b602082108114156103b7576103b661035c565b5b5091905056fea2646970667358221220dc9536920663e8f11692316c1a07921a664a621e5d4d25a953d7a40d8897849d64736f6c634300080a0033","opcodes":"PUSH1 0x80 PUSH1 0x40 MSTORE CALLVALUE DUP1 ISZERO PUSH3 0x11 JUMPI PUSH1 0x0 DUP1 REVERT JUMPDEST POP PUSH1 0x40 MLOAD PUSH3 0x8C0 CODESIZE SUB DUP1 PUSH3 0x8C0 DUP4 CODECOPY DUP2 DUP2 ADD PUSH1 0x40 MSTORE DUP2 ADD SWAP1 PUSH3 0x37 SWAP2 SWAP1 PUSH3 0x3A8 JUMP JUMPDEST DUP4 PUSH1 0x0 DUP2 SWAP1 SSTORE POP DUP3 PUSH1 0x1 SWAP1 DUP1 MLOAD SWAP1 PUSH1 0x20 ADD SWAP1 PUSH3 0x56 SWAP3 SWAP2 SWAP1 PUSH3 0xBB JUMP JUMPDEST POP DUP2 PUSH1 0x2 SWAP1 DUP1 MLOAD SWAP1 PUSH1 0x20 ADD SWAP1 PUSH3 0x6F SWAP3 SWAP2 SWAP1 PUSH3 0xBB JUMP JUMPDEST POP DUP1 PUSH1 0x3 PUSH1 0x0 PUSH2 0x100 EXP DUP2 SLOAD DUP2 PUSH20 0xFFFFFFFFFFFFFFFFFFFFFFFFFFFFFFFFFFFFFFFF MUL NOT AND SWAP1 DUP4 PUSH20 0xFFFFFFFFFFFFFFFFFFFFFFFFFFFFFFFFFFFFFFFF AND MUL OR SWAP1 SSTORE POP POP POP POP POP PUSH3 0x4BD JUMP JUMPDEST DUP3 DUP1 SLOAD PUSH3 0xC9 SWAP1 PUSH3 0x487 JUMP JUMPDEST SWAP1 PUSH1 0x0 MSTORE PUSH1 0x20 PUSH1 0x0 KECCAK256 SWAP1 PUSH1 0x1F ADD PUSH1 0x20 SWAP1 DIV DUP2 ADD SWAP3 DUP3 PUSH3 0xED JUMPI PUSH1 0x0 DUP6 SSTORE PUSH3 0x139 JUMP JUMPDEST DUP3 PUSH1 0x1F LT PUSH3 0x108 JUMPI DUP1 MLOAD PUSH1 0xFF NOT AND DUP4 DUP1 ADD OR DUP6 SSTORE PUSH3 0x139 JUMP JUMPDEST DUP3 DUP1 ADD PUSH1 0x1 ADD DUP6 SSTORE DUP3 ISZERO PUSH3 0x139 JUMPI SWAP2 DUP3 ADD JUMPDEST DUP3 DUP2 GT ISZERO PUSH3 0x138 JUMPI DUP3 MLOAD DUP3 SSTORE SWAP2 PUSH1 0x20 ADD SWAP2 SWAP1 PUSH1 0x1 ADD SWAP1 PUSH3 0x11B JUMP JUMPDEST JUMPDEST POP SWAP1 POP PUSH3 0x148 SWAP2 SWAP1 PUSH3 0x14C JUMP JUMPDEST POP SWAP1 JUMP JUMPDEST JUMPDEST DUP1 DUP3 GT ISZERO PUSH3 0x167 JUMPI PUSH1 0x0 DUP2 PUSH1 0x0 SWAP1 SSTORE POP PUSH1 0x1 ADD PUSH3 0x14D JUMP JUMPDEST POP SWAP1 JUMP JUMPDEST PUSH1 0x0 PUSH1 0x40 MLOAD SWAP1 POP SWAP1 JUMP JUMPDEST PUSH1 0x0 DUP1 REVERT JUMPDEST PUSH1 0x0 DUP1 REVERT JUMPDEST PUSH1 0x0 DUP2 SWAP1 POP SWAP2 SWAP1 POP JUMP JUMPDEST PUSH3 0x194 DUP2 PUSH3 0x17F JUMP JUMPDEST DUP2 EQ PUSH3 0x1A0 JUMPI PUSH1 0x0 DUP1 REVERT JUMPDEST POP JUMP JUMPDEST PUSH1 0x0 DUP2 MLOAD SWAP1 POP PUSH3 0x1B4 DUP2 PUSH3 0x189 JUMP JUMPDEST SWAP3 SWAP2 POP POP JUMP JUMPDEST PUSH1 0x0 DUP1 REVERT JUMPDEST PUSH1 0x0 DUP1 REVERT JUMPDEST PUSH1 0x0 PUSH1 0x1F NOT PUSH1 0x1F DUP4 ADD AND SWAP1 POP SWAP2 SWAP1 POP JUMP JUMPDEST PUSH32 0x4E487B7100000000000000000000000000000000000000000000000000000000 PUSH1 0x0 MSTORE PUSH1 0x41 PUSH1 0x4 MSTORE PUSH1 0x24 PUSH1 0x0 REVERT JUMPDEST PUSH3 0x20F DUP3 PUSH3 0x1C4 JUMP JUMPDEST DUP2 ADD DUP2 DUP2 LT PUSH8 0xFFFFFFFFFFFFFFFF DUP3 GT OR ISZERO PUSH3 0x231 JUMPI PUSH3 0x230 PUSH3 0x1D5 JUMP JUMPDEST JUMPDEST DUP1 PUSH1 0x40 MSTORE POP POP POP JUMP JUMPDEST PUSH1 0x0 PUSH3 0x246 PUSH3 0x16B JUMP JUMPDEST SWAP1 POP PUSH3 0x254 DUP3 DUP3 PUSH3 0x204 JUMP JUMPDEST SWAP2 SWAP1 POP JUMP JUMPDEST PUSH1 0x0 PUSH8 0xFFFFFFFFFFFFFFFF DUP3 GT ISZERO PUSH3 0x277 JUMPI PUSH3 0x276 PUSH3 0x1D5 JUMP JUMPDEST JUMPDEST PUSH3 0x282 DUP3 PUSH3 0x1C4 JUMP JUMPDEST SWAP1 POP PUSH1 0x20 DUP2 ADD SWAP1 POP SWAP2 SWAP1 POP JUMP JUMPDEST PUSH1 0x0 JUMPDEST DUP4 DUP2 LT ISZERO PUSH3 0x2AF JUMPI DUP1 DUP3 ADD MLOAD DUP2 DUP5 ADD MSTORE PUSH1 0x20 DUP2 ADD SWAP1 POP PUSH3 0x292 JUMP JUMPDEST DUP4 DUP2 GT ISZERO PUSH3 0x2BF JUMPI PUSH1 0x0 DUP5 DUP5 ADD MSTORE JUMPDEST POP POP POP POP JUMP JUMPDEST PUSH1 0x0 PUSH3 0x2DC PUSH3 0x2D6 DUP5 PUSH3 0x259 JUMP JUMPDEST PUSH3 0x23A JUMP JUMPDEST SWAP1 POP DUP3 DUP2 MSTORE PUSH1 0x20 DUP2 ADD DUP5 DUP5 DUP5 ADD GT ISZERO PUSH3 0x2FB JUMPI PUSH3 0x2FA PUSH3 0x1BF JUMP JUMPDEST JUMPDEST PUSH3 0x308 DUP5 DUP3 DUP6 PUSH3 0x28F JUMP JUMPDEST POP SWAP4 SWAP3 POP POP POP JUMP JUMPDEST PUSH1 0x0 DUP3 PUSH1 0x1F DUP4 ADD SLT PUSH3 0x328 JUMPI PUSH3 0x327 PUSH3 0x1BA JUMP JUMPDEST JUMPDEST DUP2 MLOAD PUSH3 0x33A DUP5 DUP3 PUSH1 0x20 DUP7 ADD PUSH3 0x2C5 JUMP JUMPDEST SWAP2 POP POP SWAP3 SWAP2 POP POP JUMP JUMPDEST PUSH1 0x0 PUSH20 0xFFFFFFFFFFFFFFFFFFFFFFFFFFFFFFFFFFFFFFFF DUP3 AND SWAP1 POP SWAP2 SWAP1 POP JUMP JUMPDEST PUSH1 0x0 PUSH3 0x370 DUP3 PUSH3 0x343 JUMP JUMPDEST SWAP1 POP SWAP2 SWAP1 POP JUMP JUMPDEST PUSH3 0x382 DUP2 PUSH3 0x363 JUMP JUMPDEST DUP2 EQ PUSH3 0x38E JUMPI PUSH1 0x0 DUP1 REVERT JUMPDEST POP JUMP JUMPDEST PUSH1 0x0 DUP2 MLOAD SWAP1 POP PUSH3 0x3A2 DUP2 PUSH3 0x377 JUMP JUMPDEST SWAP3 SWAP2 POP POP JUMP JUMPDEST PUSH1 0x0 DUP1 PUSH1 0x0 DUP1 PUSH1 0x80 DUP6 DUP8 SUB SLT ISZERO PUSH3 0x3C5 JUMPI PUSH3 0x3C4 PUSH3 0x175 JUMP JUMPDEST JUMPDEST PUSH1 0x0 PUSH3 0x3D5 DUP8 DUP3 DUP9 ADD PUSH3 0x1A3 JUMP JUMPDEST SWAP5 POP POP PUSH1 0x20 DUP6 ADD MLOAD PUSH8 0xFFFFFFFFFFFFFFFF DUP2 GT ISZERO PUSH3 0x3F9 JUMPI PUSH3 0x3F8 PUSH3 0x17A JUMP JUMPDEST JUMPDEST PUSH3 0x407 DUP8 DUP3 DUP9 ADD PUSH3 0x310 JUMP JUMPDEST SWAP4 POP POP PUSH1 0x40 DUP6 ADD MLOAD PUSH8 0xFFFFFFFFFFFFFFFF DUP2 GT ISZERO PUSH3 0x42B JUMPI PUSH3 0x42A PUSH3 0x17A JUMP JUMPDEST JUMPDEST PUSH3 0x439 DUP8 DUP3 DUP9 ADD PUSH3 0x310 JUMP JUMPDEST SWAP3 POP POP PUSH1 0x60 PUSH3 0x44C DUP8 DUP3 DUP9 ADD PUSH3 0x391 JUMP JUMPDEST SWAP2 POP POP SWAP3 SWAP6 SWAP2 SWAP5 POP SWAP3 POP JUMP JUMPDEST PUSH32 0x4E487B7100000000000000000000000000000000000000000000000000000000 PUSH1 0x0 MSTORE PUSH1 0x22 PUSH1 0x4 MSTORE PUSH1 0x24 PUSH1 0x0 REVERT JUMPDEST PUSH1 0x0 PUSH1 0x2 DUP3 DIV SWAP1 POP PUSH1 0x1 DUP3 AND DUP1 PUSH3 0x4A0 JUMPI PUSH1 0x7F DUP3 AND SWAP2 POP JUMPDEST PUSH1 0x20 DUP3 LT DUP2 EQ ISZERO PUSH3 0x4B7 JUMPI PUSH3 0x4B6 PUSH3 0x458 JUMP JUMPDEST JUMPDEST POP SWAP2 SWAP1 POP JUMP JUMPDEST PUSH2 0x3F3 DUP1 PUSH3 0x4CD PUSH1 0x0 CODECOPY PUSH1 0x0 RETURN INVALID PUSH1 0x80 PUSH1 0x40 MSTORE CALLVALUE DUP1 ISZERO PUSH2 0x10 JUMPI PUSH1 0x0 DUP1 REVERT JUMPDEST POP PUSH1 0x4 CALLDATASIZE LT PUSH2 0x4C JUMPI PUSH1 0x0 CALLDATALOAD PUSH1 0xE0 SHR DUP1 PUSH4 0x3D5CDE39 EQ PUSH2 0x51 JUMPI DUP1 PUSH4 0x515EEE72 EQ PUSH2 0x6F JUMPI DUP1 PUSH4 0x8DA5CB5B EQ PUSH2 0x8D JUMPI DUP1 PUSH4 0xF3CCAAC0 EQ PUSH2 0xAB JUMPI JUMPDEST PUSH1 0x0 DUP1 REVERT JUMPDEST PUSH2 0x59 PUSH2 0xC9 JUMP JUMPDEST PUSH1 0x40 MLOAD PUSH2 0x66 SWAP2 SWAP1 PUSH2 0x22A JUMP JUMPDEST PUSH1 0x40 MLOAD DUP1 SWAP2 SUB SWAP1 RETURN JUMPDEST PUSH2 0x77 PUSH2 0xCF JUMP JUMPDEST PUSH1 0x40 MLOAD PUSH2 0x84 SWAP2 SWAP1 PUSH2 0x2DE JUMP JUMPDEST PUSH1 0x40 MLOAD DUP1 SWAP2 SUB SWAP1 RETURN JUMPDEST PUSH2 0x95 PUSH2 0x15D JUMP JUMPDEST PUSH1 0x40 MLOAD PUSH2 0xA2 SWAP2 SWAP1 PUSH2 0x341 JUMP JUMPDEST PUSH1 0x40 MLOAD DUP1 SWAP2 SUB SWAP1 RETURN JUMPDEST PUSH2 0xB3 PUSH2 0x183 JUMP JUMPDEST PUSH1 0x40 MLOAD PUSH2 0xC0 SWAP2 SWAP1 PUSH2 0x2DE JUMP JUMPDEST PUSH1 0x40 MLOAD DUP1 SWAP2 SUB SWAP1 RETURN JUMPDEST PUSH1 0x0 SLOAD DUP2 JUMP JUMPDEST PUSH1 0x2 DUP1 SLOAD PUSH2 0xDC SWAP1 PUSH2 0x38B JUMP JUMPDEST DUP1 PUSH1 0x1F ADD PUSH1 0x20 DUP1 SWAP2 DIV MUL PUSH1 0x20 ADD PUSH1 0x40 MLOAD SWAP1 DUP2 ADD PUSH1 0x40 MSTORE DUP1 SWAP3 SWAP2 SWAP1 DUP2 DUP2 MSTORE PUSH1 0x20 ADD DUP3 DUP1 SLOAD PUSH2 0x108 SWAP1 PUSH2 0x38B JUMP JUMPDEST DUP1 ISZERO PUSH2 0x155 JUMPI DUP1 PUSH1 0x1F LT PUSH2 0x12A JUMPI PUSH2 0x100 DUP1 DUP4 SLOAD DIV MUL DUP4 MSTORE SWAP2 PUSH1 0x20 ADD SWAP2 PUSH2 0x155 JUMP JUMPDEST DUP3 ADD SWAP2 SWAP1 PUSH1 0x0 MSTORE PUSH1 0x20 PUSH1 0x0 KECCAK256 SWAP1 JUMPDEST DUP2 SLOAD DUP2 MSTORE SWAP1 PUSH1 0x1 ADD SWAP1 PUSH1 0x20 ADD DUP1 DUP4 GT PUSH2 0x138 JUMPI DUP3 SWAP1 SUB PUSH1 0x1F AND DUP3 ADD SWAP2 JUMPDEST POP POP POP POP POP DUP2 JUMP JUMPDEST PUSH1 0x3 PUSH1 0x0 SWAP1 SLOAD SWAP1 PUSH2 0x100 EXP SWAP1 DIV PUSH20 0xFFFFFFFFFFFFFFFFFFFFFFFFFFFFFFFFFFFFFFFF AND DUP2 JUMP JUMPDEST PUSH1 0x1 DUP1 SLOAD PUSH2 0x190 SWAP1 PUSH2 0x38B JUMP JUMPDEST DUP1 PUSH1 0x1F ADD PUSH1 0x20 DUP1 SWAP2 DIV MUL PUSH1 0x20 ADD PUSH1 0x40 MLOAD SWAP1 DUP2 ADD PUSH1 0x40 MSTORE DUP1 SWAP3 SWAP2 SWAP1 DUP2 DUP2 MSTORE PUSH1 0x20 ADD DUP3 DUP1 SLOAD PUSH2 0x1BC SWAP1 PUSH2 0x38B JUMP JUMPDEST DUP1 ISZERO PUSH2 0x209 JUMPI DUP1 PUSH1 0x1F LT PUSH2 0x1DE JUMPI PUSH2 0x100 DUP1 DUP4 SLOAD DIV MUL DUP4 MSTORE SWAP2 PUSH1 0x20 ADD SWAP2 PUSH2 0x209 JUMP JUMPDEST DUP3 ADD SWAP2 SWAP1 PUSH1 0x0 MSTORE PUSH1 0x20 PUSH1 0x0 KECCAK256 SWAP1 JUMPDEST DUP2 SLOAD DUP2 MSTORE SWAP1 PUSH1 0x1 ADD SWAP1 PUSH1 0x20 ADD DUP1 DUP4 GT PUSH2 0x1EC JUMPI DUP3 SWAP1 SUB PUSH1 0x1F AND DUP3 ADD SWAP2 JUMPDEST POP POP POP POP POP DUP2 JUMP JUMPDEST PUSH1 0x0 DUP2 SWAP1 POP SWAP2 SWAP1 POP JUMP JUMPDEST PUSH2 0x224 DUP2 PUSH2 0x211 JUMP JUMPDEST DUP3 MSTORE POP POP JUMP JUMPDEST PUSH1 0x0 PUSH1 0x20 DUP3 ADD SWAP1 POP PUSH2 0x23F PUSH1 0x0 DUP4 ADD DUP5 PUSH2 0x21B JUMP JUMPDEST SWAP3 SWAP2 POP POP JUMP JUMPDEST PUSH1 0x0 DUP2 MLOAD SWAP1 POP SWAP2 SWAP1 POP JUMP JUMPDEST PUSH1 0x0 DUP3 DUP3 MSTORE PUSH1 0x20 DUP3 ADD SWAP1 POP SWAP3 SWAP2 POP POP JUMP JUMPDEST PUSH1 0x0 JUMPDEST DUP4 DUP2 LT ISZERO PUSH2 0x27F JUMPI DUP1 DUP3 ADD MLOAD DUP2 DUP5 ADD MSTORE PUSH1 0x20 DUP2 ADD SWAP1 POP PUSH2 0x264 JUMP JUMPDEST DUP4 DUP2 GT ISZERO PUSH2 0x28E JUMPI PUSH1 0x0 DUP5 DUP5 ADD MSTORE JUMPDEST POP POP POP POP JUMP JUMPDEST PUSH1 0x0 PUSH1 0x1F NOT PUSH1 0x1F DUP4 ADD AND SWAP1 POP SWAP2 SWAP1 POP JUMP JUMPDEST PUSH1 0x0 PUSH2 0x2B0 DUP3 PUSH2 0x245 JUMP JUMPDEST PUSH2 0x2BA DUP2 DUP6 PUSH2 0x250 JUMP JUMPDEST SWAP4 POP PUSH2 0x2CA DUP2 DUP6 PUSH1 0x20 DUP7 ADD PUSH2 0x261 JUMP JUMPDEST PUSH2 0x2D3 DUP2 PUSH2 0x294 JUMP JUMPDEST DUP5 ADD SWAP2 POP POP SWAP3 SWAP2 POP POP JUMP JUMPDEST PUSH1 0x0 PUSH1 0x20 DUP3 ADD SWAP1 POP DUP2 DUP2 SUB PUSH1 0x0 DUP4 ADD MSTORE PUSH2 0x2F8 DUP2 DUP5 PUSH2 0x2A5 JUMP JUMPDEST SWAP1 POP SWAP3 SWAP2 POP POP JUMP JUMPDEST PUSH1 0x0 PUSH20 0xFFFFFFFFFFFFFFFFFFFFFFFFFFFFFFFFFFFFFFFF DUP3 AND SWAP1 POP SWAP2 SWAP1 POP JUMP JUMPDEST PUSH1 0x0 PUSH2 0x32B DUP3 PUSH2 0x300 JUMP JUMPDEST SWAP1 POP SWAP2 SWAP1 POP JUMP JUMPDEST PUSH2 0x33B DUP2 PUSH2 0x320 JUMP JUMPDEST DUP3 MSTORE POP POP JUMP JUMPDEST PUSH1 0x0 PUSH1 0x20 DUP3 ADD SWAP1 POP PUSH2 0x356 PUSH1 0x0 DUP4 ADD DUP5 PUSH2 0x332 JUMP JUMPDEST SWAP3 SWAP2 POP POP JUMP JUMPDEST PUSH32 0x4E487B7100000000000000000000000000000000000000000000000000000000 PUSH1 0x0 MSTORE PUSH1 0x22 PUSH1 0x4 MSTORE PUSH1 0x24 PUSH1 0x0 REVERT JUMPDEST PUSH1 0x0 PUSH1 0x2 DUP3 DIV SWAP1 POP PUSH1 0x1 DUP3 AND DUP1 PUSH2 0x3A3 JUMPI PUSH1 0x7F DUP3 AND SWAP2 POP JUMPDEST PUSH1 0x20 DUP3 LT DUP2 EQ ISZERO PUSH2 0x3B7 JUMPI PUSH2 0x3B6 PUSH2 0x35C JUMP JUMPDEST JUMPDEST POP SWAP2 SWAP1 POP JUMP INVALID LOG2 PUSH5 0x6970667358 0x22 SLT KECCAK256 0xDC SWAP6 CALLDATASIZE SWAP3 MOD PUSH4 0xE8F11692 BALANCE PUSH13 0x1A07921A664A621E5D4D25A953 0xD7 LOG4 0xD DUP9 SWAP8 DUP5 SWAP14 PUSH5 0x736F6C6343 STOP ADDMOD EXP STOP CALLER "},"methodIdentifiers":{"documentInformation()":"515eee72","documentNO()":"3d5cde39","image()":"f3ccaac0","owner()":"8da5cb5b"}}}}}