{
  "_format": "hh-sol-artifact-1",
  "contractName": "RegistryFactory",
  "sourceName": "contracts/Greeter.sol",
  "abi": [
    {
      "anonymous": false,
      "inputs": [
        {
          "indexed": false,
          "internalType": "uint256",
          "name": "documentNumber",
          "type": "uint256"
        },
        {
          "indexed": true,
          "internalType": "address",
          "name": "owner",
          "type": "address"
        },
        {
          "indexed": false,
          "internalType": "address",
          "name": "RegistryAddress",
          "type": "address"
        },
        {
          "indexed": false,
          "internalType": "string",
          "name": "imgURI",
          "type": "string"
        },
        {
          "indexed": true,
          "internalType": "uint256",
          "name": "timestamp",
          "type": "uint256"
        },
        {
          "indexed": true,
          "internalType": "string",
          "name": "category",
          "type": "string"
        }
      ],
      "name": "RegistryCreated",
      "type": "event"
    },
    {
      "inputs": [
        {
          "internalType": "uint256",
          "name": "documentNumber",
          "type": "uint256"
        },
        {
          "internalType": "string",
          "name": "imgURI",
          "type": "string"
        },
        {
          "internalType": "string",
          "name": "category",
          "type": "string"
        },
        {
          "internalType": "string",
          "name": "storyURI",
          "type": "string"
        }
      ],
      "name": "createRegistry",
      "outputs": [],
      "stateMutability": "nonpayable",
      "type": "function"
    },
    {
      "inputs": [
        {
          "internalType": "uint256",
          "name": "",
          "type": "uint256"
        }
      ],
      "name": "deployedRegistry",
      "outputs": [
        {
          "internalType": "address",
          "name": "",
          "type": "address"
        }
      ],
      "stateMutability": "view",
      "type": "function"
    }
  ],
  "bytecode": "0x608060405234801561001057600080fd5b50610fa5806100206000396000f3fe60806040523480156200001157600080fd5b50600436106200003a5760003560e01c80638f9e3fe3146200003f578063a470c0ce1462000075575b600080fd5b6200005d60048036038101906200005791906200024c565b62000095565b6040516200006c9190620002c3565b60405180910390f35b6200009360048036038101906200008d919062000442565b620000d5565b005b60008181548110620000a657600080fd5b906000526020600020016000915054906101000a900473ffffffffffffffffffffffffffffffffffffffff1681565b600084848333604051620000e990620001ef565b620000f89493929190620005b5565b604051809103906000f08015801562000115573d6000803e3d6000fd5b5090506000819080600181540180825580915050600190039060005260206000200160009091909190916101000a81548173ffffffffffffffffffffffffffffffffffffffff021916908373ffffffffffffffffffffffffffffffffffffffff160217905550826040516200018b919062000652565b6040518091039020423373ffffffffffffffffffffffffffffffffffffffff167f0f667e1494d6d89a037d4af3c9d81cde252fc61b5efba6080bba467f0f41da75888589604051620001e0939291906200066b565b60405180910390a45050505050565b6108c080620006b083390190565b6000604051905090565b600080fd5b600080fd5b6000819050919050565b620002268162000211565b81146200023257600080fd5b50565b60008135905062000246816200021b565b92915050565b60006020828403121562000265576200026462000207565b5b6000620002758482850162000235565b91505092915050565b600073ffffffffffffffffffffffffffffffffffffffff82169050919050565b6000620002ab826200027e565b9050919050565b620002bd816200029e565b82525050565b6000602082019050620002da6000830184620002b2565b92915050565b600080fd5b600080fd5b6000601f19601f8301169050919050565b7f4e487b7100000000000000000000000000000000000000000000000000000000600052604160045260246000fd5b6200033582620002ea565b810181811067ffffffffffffffff82111715620003575762000356620002fb565b5b80604052505050565b60006200036c620001fd565b90506200037a82826200032a565b919050565b600067ffffffffffffffff8211156200039d576200039c620002fb565b5b620003a882620002ea565b9050602081019050919050565b82818337600083830152505050565b6000620003db620003d5846200037f565b62000360565b905082815260208101848484011115620003fa57620003f9620002e5565b5b62000407848285620003b5565b509392505050565b600082601f830112620004275762000426620002e0565b5b813562000439848260208601620003c4565b91505092915050565b600080600080608085870312156200045f576200045e62000207565b5b60006200046f8782880162000235565b945050602085013567ffffffffffffffff8111156200049357620004926200020c565b5b620004a1878288016200040f565b935050604085013567ffffffffffffffff811115620004c557620004c46200020c565b5b620004d3878288016200040f565b925050606085013567ffffffffffffffff811115620004f757620004f66200020c565b5b62000505878288016200040f565b91505092959194509250565b6200051c8162000211565b82525050565b600081519050919050565b600082825260208201905092915050565b60005b838110156200055e57808201518184015260208101905062000541565b838111156200056e576000848401525b50505050565b6000620005818262000522565b6200058d81856200052d565b93506200059f8185602086016200053e565b620005aa81620002ea565b840191505092915050565b6000608082019050620005cc600083018762000511565b8181036020830152620005e0818662000574565b90508181036040830152620005f6818562000574565b9050620006076060830184620002b2565b95945050505050565b600081905092915050565b6000620006288262000522565b62000634818562000610565b9350620006468185602086016200053e565b80840191505092915050565b60006200066082846200061b565b915081905092915050565b600060608201905062000682600083018662000511565b620006916020830185620002b2565b8181036040830152620006a5818462000574565b905094935050505056fe60806040523480156200001157600080fd5b50604051620008c0380380620008c08339818101604052810190620000379190620003a8565b83600081905550826001908051906020019062000056929190620000bb565b5081600290805190602001906200006f929190620000bb565b5080600360006101000a81548173ffffffffffffffffffffffffffffffffffffffff021916908373ffffffffffffffffffffffffffffffffffffffff16021790555050505050620004bd565b828054620000c99062000487565b90600052602060002090601f016020900481019282620000ed576000855562000139565b82601f106200010857805160ff191683800117855562000139565b8280016001018555821562000139579182015b82811115620001385782518255916020019190600101906200011b565b5b5090506200014891906200014c565b5090565b5b80821115620001675760008160009055506001016200014d565b5090565b6000604051905090565b600080fd5b600080fd5b6000819050919050565b62000194816200017f565b8114620001a057600080fd5b50565b600081519050620001b48162000189565b92915050565b600080fd5b600080fd5b6000601f19601f8301169050919050565b7f4e487b7100000000000000000000000000000000000000000000000000000000600052604160045260246000fd5b6200020f82620001c4565b810181811067ffffffffffffffff82111715620002315762000230620001d5565b5b80604052505050565b6000620002466200016b565b905062000254828262000204565b919050565b600067ffffffffffffffff821115620002775762000276620001d5565b5b6200028282620001c4565b9050602081019050919050565b60005b83811015620002af57808201518184015260208101905062000292565b83811115620002bf576000848401525b50505050565b6000620002dc620002d68462000259565b6200023a565b905082815260208101848484011115620002fb57620002fa620001bf565b5b620003088482856200028f565b509392505050565b600082601f830112620003285762000327620001ba565b5b81516200033a848260208601620002c5565b91505092915050565b600073ffffffffffffffffffffffffffffffffffffffff82169050919050565b6000620003708262000343565b9050919050565b620003828162000363565b81146200038e57600080fd5b50565b600081519050620003a28162000377565b92915050565b60008060008060808587031215620003c557620003c462000175565b5b6000620003d587828801620001a3565b945050602085015167ffffffffffffffff811115620003f957620003f86200017a565b5b620004078782880162000310565b935050604085015167ffffffffffffffff8111156200042b576200042a6200017a565b5b620004398782880162000310565b92505060606200044c8782880162000391565b91505092959194509250565b7f4e487b7100000000000000000000000000000000000000000000000000000000600052602260045260246000fd5b60006002820490506001821680620004a057607f821691505b60208210811415620004b757620004b662000458565b5b50919050565b6103f380620004cd6000396000f3fe608060405234801561001057600080fd5b506004361061004c5760003560e01c80633d5cde3914610051578063515eee721461006f5780638da5cb5b1461008d578063f3ccaac0146100ab575b600080fd5b6100596100c9565b604051610066919061022a565b60405180910390f35b6100776100cf565b60405161008491906102de565b60405180910390f35b61009561015d565b6040516100a29190610341565b60405180910390f35b6100b3610183565b6040516100c091906102de565b60405180910390f35b60005481565b600280546100dc9061038b565b80601f01602080910402602001604051908101604052809291908181526020018280546101089061038b565b80156101555780601f1061012a57610100808354040283529160200191610155565b820191906000526020600020905b81548152906001019060200180831161013857829003601f168201915b505050505081565b600360009054906101000a900473ffffffffffffffffffffffffffffffffffffffff1681565b600180546101909061038b565b80601f01602080910402602001604051908101604052809291908181526020018280546101bc9061038b565b80156102095780601f106101de57610100808354040283529160200191610209565b820191906000526020600020905b8154815290600101906020018083116101ec57829003601f168201915b505050505081565b6000819050919050565b61022481610211565b82525050565b600060208201905061023f600083018461021b565b92915050565b600081519050919050565b600082825260208201905092915050565b60005b8381101561027f578082015181840152602081019050610264565b8381111561028e576000848401525b50505050565b6000601f19601f8301169050919050565b60006102b082610245565b6102ba8185610250565b93506102ca818560208601610261565b6102d381610294565b840191505092915050565b600060208201905081810360008301526102f881846102a5565b905092915050565b600073ffffffffffffffffffffffffffffffffffffffff82169050919050565b600061032b82610300565b9050919050565b61033b81610320565b82525050565b60006020820190506103566000830184610332565b92915050565b7f4e487b7100000000000000000000000000000000000000000000000000000000600052602260045260246000fd5b600060028204905060018216806103a357607f821691505b602082108114156103b7576103b661035c565b5b5091905056fea264697066735822122098604f86ef183e7e4fe04a081d549247e89c103b01a48b4759ef39e5f193b1b964736f6c634300080a0033a26469706673582212200e7f5bed52a5369b39cf59f7bcca3db5e143cb2c11eb345d71a31121ac82c7d864736f6c634300080a0033",
  "linkReferences": {},
  "deployedLinkReferences": {}
}